:020000040800F2
:10000000FCFF0020FD190000851800008518000085
:10001000851800008518000085180000851800006C
:10002000851800008518000085180000851800005C
:10003000851800008518000085180000851800004C
:10004000851800008518000085180000851800003C
:10005000851800008518000085180000851800002C
:10006000851800008518000085180000851800001C
:10007000851800008518000085180000851800000C
:1000800085180000851800008518000085180000FC
:1000900085180000851800008518000085180000EC
:1000A00085180000851800008518000085180000DC
:1000B0008D180000851800008518000085180000C4
:1000C00085180000851800008518000085180000BC
:1000D00085180000851800008518000085180000AC
:1000E000851800008518000085180000851800009C
:1000F000851800008518000085180000851800008C
:10010000851800008518000085180000851800007B
:10011000851800008518000085180000851800006B
:10012000851800008518000085180000851800005B
:10013000851800008518000085180000851800004B
:10014000851800008518000085180000851800003B
:1001500081B0194900EA0101084600220EE004209E
:1001600022E0082020E010201EE020201CE040209B
:100170001AE0802018E040F2001015E00F49884294
:10018000EDD00F498842ECD00E498842EBD00E49A1
:100190008842EAD00D498842E9D00D498842E8D02A
:1001A0000C498842E7D010460B49096841EA000231
:1001B00009490A6001B0704700FCFFFF00080140D8
:1001C000000C0140001001400014014000180140E3
:1001D000001C0140002001401810024081B0CDF801
:1001E00000E08CB21546774B00EA03031E46184622
:1001F000FFF7AEFFB4F1FF0F0CD1734B9D4203D15B
:100200004FF033333360D9E0422D03D14FF0443304
:100210003360D3E04FF6FF739C4214D16A4B9D428A
:1002200007D14FF033333360341D4FF03333236045
:10023000C4E0422D07D14FF044333360341D4FF0FA
:1002400044332360BAE00021002005F001030BB124
:1002500000211DE005F0020333B105F4C0730BB1BA
:10026000082100E0042113E005F0040333B105F098
:1002700020030BB1042100E0002109E005F0080390
:1002800033B105F020030BB10C2100E00821FFE79A
:100290004E4B05EA03030BB1032009E005F400739C
:1002A0000BB1022004E005F480630BB10120FFE7ED
:1002B00005F00C030BB10143FFE704F0FF039BB211
:1002C000002B3BD0376800201FFA84F832462E46B8
:1002D00008282CD24FF0010303FA00F408EA0403C3
:1002E000A34222D185004FF00F03AB40DB4307EA66
:1002F000030401FA05F344EA03031D4606F481737F
:10030000B3F5817F05D102F214044FF0010383405D
:10031000236006F08203822B05D102F210044FF015
:100320000103834023602F46FFE7401CD0E717609E
:100330001FFA88F00F463146164602E00F4629465E
:10034000A0B2B0F1FF0F39D9331DD3F800800022DD
:10035000082A30D202F208044FF0010303FA04F431
:1003600000EA0403A34224D195004FF00F03AB40F1
:10037000DB4308EA030807FA05F348EA030801F437
:100380008173B3F5817F07D106F2140502F20804E8
:100390004FF00103A3402B6001F08203822B07D1B1
:1003A00006F2100502F208044FF00103A3402B608F
:1003B000FFE7521CCCE7331DC3F80080DDF800E0F6
:1003C00001B0704700FCFFFF14000800000808009F
:1003D00001480068704700BFAC02002083B0CDF830
:1003E00000E000F0FF031A09104603F00F02134665
:1003F00014E0194A02921FE0184A02921CE0184ABF
:10040000029219E0174A029216E0174A029213E08C
:10041000164A029210E0164A02920DE00028E8D037
:100420000128E9D00228EAD00328EBD00428ECD038
:100430000528EDD00628EED0012212B29A40ADF880
:10044000042002980A46BDF80410FFF7C7FEDDF845
:1004500000E003B0704700BF00080140000C0140FD
:10046000001001400014014000180140001C014030
:100470000020014081B0CDF800E0012252B23E4997
:100480000A6000F268010B686FF0006103EA010284
:10049000144603F00061C90E0B4602F00041B1F1B1
:1004A000004F02D135490A6801E035490A6804F471
:1004B0007021090C0E464FF6FF7104EA01010D464A
:1004C00004F44011B1F5401F0DD16FF0706102EAE4
:1004D00001010E462A490A686FF070610A402849F6
:1004E0000A60324616E004F48011B1F5801F09D18C
:1004F0004FF00301B140C94302EA010141F07061CC
:100500000A4607E0610D090105FA01F1C9430A40F5
:1005100042F070622BB1610D090105FA01F10A4345
:10052000FFE704F00041B1F1004F02D113490A6026
:1005300001E013490A6040F2000A81464FEA8A014D
:1005400009EB01010968B1F1FF3F10D009F1340155
:100550004FEA8A03C91809680A4609EB03010968CA
:1005600008461146FFF73AFF0AF1010AE6E7DDF80F
:1005700000E001B0704700BF000342421C00014090
:100580000400014082B0CDF800E003461946019115
:10059000FFF71EFF40F2E83100FB01F201990A600B
:1005A0001F490978C1F30311C8B21E490918087818
:1005B000C0B21A1D1968C140116019490988C1F3F8
:1005C000022188B2174909180878C0B203F208025C
:1005D000191D0968C140116011490988C1F3C22180
:1005E00088B2104909180878C0B203F20C02191D2C
:1005F0000968C14011600A490988C1F3813188B294
:10060000094909180978C8B203F2100203F20C0173
:100610000968B1FBF0F11160DDF800E002B070474D
:1006200004100240981E0000B41E000081B0016852
:10063000C1F3801001B0704781B0ADF800100146E1
:10064000BDF900000B78C2B2934207D00B46491C9B
:100650001A78002A01D1002001E0F3E7084601B032
:100660007047FFFF014640F2000340F2000082B2F3
:100670000846C118097821B15B1C9BB2521C92B28A
:10068000F7E790B27047FFFF81B00268C2F34011F4
:1006900001B9FAE7011D096888B201B07047FFFF90
:1006A00081B0ADF800100146BDF800000B68C3F33F
:1006B000C01202B9FAE70A1D106001B07047FFFFCF
:1006C00093B20A46014640F2000440F200001FFACD
:1006D00080F810469AB2EAB10B191D78EEB2631C8D
:1006E0009FB200EB08031C785FFA84F908F1010857
:1006F0001FFA88F8A54207D04E4502D2FF2040B22B
:1007000001E0012040B207E006B903E0521E92B2B8
:10071000BCB2E0E7002040B27047FFFF89B0CDF8DF
:1007200000E0834698B28C46BDF824100A9E04ACC3
:10073000ADF80410ADF808002046FFF723FFBDF820
:100740000800BDF80410644CA34512D101256DB218
:10075000624C2560624D634C2560634D634C25609F
:10076000634D644C2560644D644C2560079C039484
:1007700056E0634CA34512D101256DB2614C256052
:10078000614D584C2560614D584C2560604D594C69
:100790002560604D594C2560069C039440E05E4CFA
:1007A000A34512D101256DB25C4C25605C4D4D4CCA
:1007B00025605C4D4D4C25605B4D4E4C25605B4D7E
:1007C0004E4C2560069C03942AE0594CA34512D157
:1007D00001256DB2574C2560574D424C2560574D51
:1007E000424C2560564D434C2560564D434C256088
:1007F000069C039414E0544CA34511D101256DB21D
:10080000524C2560524D374C2560524D374C256077
:10081000514D384C2560514D384C2560069C039451
:10082000ADF80410ADF808003046FFF723FEBDF820
:100830000800BDF804100BF1100500242C600BF12A
:1008400010052C680C432C600BF10C0500242C6067
:1008500018B140F4806080B2FFE70BF10C052C6802
:1008600004432C600BF10C060125346865F34D340C
:1008700034600BF10C060125346865F3C304346061
:100880000BF10C060125346865F3820434600BF12A
:10089000140500242C60039D192465434FEA8C0441
:1008A000B5FBF4F76424B7FBF4F42601350964249E
:1008B0006C433C1B240104F232056424B5FBF4F4C0
:1008C00004F00F0446EA04040BF10805A4B22C60FE
:1008D000DDF800E009B070470038014038034242BB
:1008E000C10B0000B00200206D090000B40200201E
:1008F0008D0A0000B8020020350B0000BC02002069
:1009000000440040C4034242150C00001D0B0000CF
:10091000650B00004D0B000000480040C803424238
:10092000DD0B0000050B0000BD0A0000A50A000059
:10093000004C0040CC034242F90B0000ED0A0000DD
:10094000D50A00008509000000500040D003424253
:100950007D0B0000450A0000750A00005D0A0000DA
:1009600081B00168C1F3401001B0704781B0CDF88B
:1009700000E00348FFF788FEDDF800E001B07047B3
:100980000038014081B0CDF800E00348FFF74EFE8B
:10099000DDF800E001B07047004C004081B0CDF8B8
:1009A00000E00E46254A127811B2FFF745FE00F22C
:1009B0000A021278D1B200F21402157800F23D0258
:1009C0001278D7B200F24202147800F24302127891
:1009D0001B4B1A801A461288120292B21A802243C6
:1009E0001A80012D03D1731C01221A7009E001291C
:1009F00002D10122327004E000223270731C002206
:100A00001A70012F03D1B31C01221A7002E0B31C2B
:100A100000221A700A4A12884AB1094A1288B2F1B1
:100A2000FF0F04D8331D064A12881A8002E0331DD6
:100A300000221A80DDF800E001B070479D0200201E
:100A40009E02002081B0CDF800E00348FFF71CFEB5
:100A5000DDF800E001B070470050004081B0CDF8F3
:100A600000E00348FFF7E2FDDDF800E001B0704769
:100A70000050004081B0CDF800E00348FFF770FF60
:100A8000DDF800E001B070470050004081B0CDF8C3
:100A900000E00348FFF764FFDDF800E001B07047B5
:100AA0000038014081B0CDF800E00348FFF7BEFDFB
:100AB000DDF800E001B070470048004081B0CDF89B
:100AC00000E00348FFF74CFFDDF800E001B070479D
:100AD0000048004081B0CDF800E00348FFF740FF38
:100AE000DDF800E001B07047004C004081B0CDF867
:100AF00000E00348FFF7C8FDDDF800E001B07047F3
:100B0000004C004081B0CDF800E00348FFF7BCFD89
:100B1000DDF800E001B070470048004081B0CDF83A
:100B200000E00348FFF7B0FDDDF800E001B07047DA
:100B30000044004081B0CDF800E00348FFF776FDA7
:100B4000DDF800E001B070470038014081B0CDF819
:100B500000E00348FFF76AFDDDF800E001B07047F0
:100B60000044004081B0CDF800E00348FFF7F8FEF4
:100B7000DDF800E001B070470044004081B0CDF8DE
:100B800000E081B20348FFF78BFDDDF800E001B023
:100B9000704700BF0050004081B0CDF800E0019DDB
:100BA0002C4610B408B493B28AB201460348FFF74A
:100BB000B5FD02B0DDF800E001B070470044004030
:100BC00081B0CDF800E081B20348FFF769FDDDF8A0
:100BD00000E001B0704700BF0038014081B0CDF89F
:100BE00000E081B20348FFF75BFDDDF800E001B0F3
:100BF000704700BF0048004081B0CDF800E081B2EE
:100C00000348FFF74DFDDDF800E001B0704700BF7D
:100C1000004C004081B0CDF800E081B20348FFF7FE
:100C20003FFDDDF800E001B0704700BF0044004028
:100C300081B0CDF800E004462046FFF713FDC5B2B1
:100C4000204600F0CFFA0124EBB20D4909888C420E
:100C500011D222010B4989180988994208D1220131
:100C600008498918091D0968814201D1A0B203E031
:100C7000641CA4B2E9E70020DDF800E001B0704791
:100C8000C0020020C402002085B0CDF800E08246FA
:100C900002918DF80C208DF810305046FFF7E2FCE1
:100CA0008DF81100C4B2102C02D910248DF8114017
:100CB000012751469DF80C40A7423FD2032404FB74
:100CC00007F5029C641901912046FFF7CBFC0199BE
:100CD000C2B240F2000C8A46F9B25FFA8CFB5FFAAE
:100CE00082FC9DF81140A34523D20AEB0B06032496
:100CF00004FB01F5029C64198DF804105FFA8CF274
:100D000031462046FFF7DCFC9DF8041058B99DF8E9
:100D100010400CB9C8B212E09DF81040012C02D16D
:100D20005FFA8BF00BE00BF10104E0B25FFA80FB9D
:100D3000D7E74C1CE5B25146EFB2BBE70020DDF827
:100D400000E005B07047FFFF81B0044640F20000AC
:100D5000ADF8002082B20846BDF8001059B18318E2
:100D60001B782370237813B1521C92B2FFE7641CE6
:100D7000491E89B2F2E701B07047FFFF81B0CDF89C
:100D800000E0019D2C4610B408B493B28AB201462B
:100D90000348FFF7C3FC02B0DDF800E001B0704784
:100DA0000048004081B0CDF800E0019D2C4610B411
:100DB00008B493B28AB201460348FFF7AFFC02B011
:100DC000DDF800E001B070470038014081B0CDF897
:100DD00000E0094902B440F2000340F2000240F290
:100DE0000001FFF7DFFF01B0044A05490A60002057
:100DF000DDF800E001B070473C1D0000C10B0000B1
:100E0000A802002081B0CDF800E0094902B440F208
:100E1000000340F2000240F20001FFF7BDFE01B006
:100E2000044A05490A600020DDF800E001B070477F
:100E3000D01C0000150C0000A802002081B0CDF8E5
:100E400000E00B4D00F20C010C6800F208010B6889
:100E5000011D0A680168084691B29AB2A3B220B493
:100E6000FFF78CFF01B00020DDF800E001B0704713
:100E7000A81D000081B00A4681B200208DB2114643
:100E8000052805D20B1820221A70401CC0B2F7E7C3
:100E90000B1800221A70401EC0B20C180A23B5FBB2
:100EA000F3F203FB125292B2303222700A22B5FBE7
:100EB000F2F292B295B202B902E0401EC0B2ECE783
:100EC00001B0704781B0CDF800E0094902B440F2AA
:100ED000000340F2000240F20001FFF74FFF01B0B3
:100EE000044A05490A600020DDF800E001B07047BF
:100EF000A81D0000DD0B0000A802002081B0CDF885
:100F000000E00B4D00F20C010C6800F208010B68C8
:100F1000011D0A680168084691B29AB2A3B220B4D2
:100F2000FFF73AFE01B00020DDF800E001B07047A5
:100F3000D01C000081B0CDF800E0094902B440F2B5
:100F4000000340F2000240F20001FFF725FE01B06D
:100F5000044A05490A600020DDF800E001B070474E
:100F6000D01C0000150C0000A802002081B0EFF397
:100F7000108C604662B601B07047FFFF81B0CDF8BB
:100F800000E0044C2468A047C0B2DDF800E001B0E6
:100F9000704700BFC008002081B0042806D119495D
:100FA000096841F4803217490A6028E0052806D113
:100FB0001449096841F4003212490A601FE006280A
:100FC00006D11049096841F480220E490A6016E0F2
:100FD0000F2806D10C49096841F002020A490A604B
:100FE0000DE010280BD3A0F2100461098A00074914
:100FF0008B1804F01F024FF001019140196001B0FD
:10100000704700BF24ED00E010E000E000E100E0E8
:1010100089B0CDF800E0069007910DF1040B0BF1BB
:10102000110ADFF8B0C000F0F3FA002307222A49C2
:101030000698FFF729FE8DF8200001230722264994
:101040000698FFF721FE8DF8210000230622234990
:101050000698FFF719FE8DF82200012306221F498A
:101060000698FFF711FEC1B208B9102000E0C8B21F
:101070009DF82120841A9DF82130069AD31801AAE0
:1010800019461046A2B2FFF75FFE01AA1046FFF70D
:10109000CFFDC1B2C2B21301114AD2180C3213688B
:1010A000079A1360079A141D0B010D4AD2180832D3
:1010B00012682260079A02F208039DF820201A7035
:1010C000079A0832531C9DF822201A70DDF800E0C0
:1010D00009B07047741E0000750200208A020020CB
:1010E000C4020020002216490A70002215490A7025
:1010F000012215490A70002214490A60012214498C
:101100000A7014490A881449891808701149098815
:101110004A1C10490A800F490A8810498A4202D3A2
:1011200001220F490A700B490A8840F2E7318A42CE
:1011300004D1084909884A1E06490A80704700BF41
:10114000C5040020C4040020A6020020B808002026
:10115000B5080020C6040020C8040020FA000000E2
:10116000A7020020026806490A60011D0A680549B5
:101170000A6000F208010A6803490A60704700BF6C
:10118000BC080020C0080020C408002081B0CDF8B1
:1011900000E00178CCB2A0B2034C2468A047002044
:1011A000DDF800E001B07047A802002081B0CDF862
:1011B00000E0044C2468A047C0B2DDF800E001B0B4
:1011C000704700BFC408002081B0CDF800E003499B
:1011D000FFF7E4FBDDF800E001B07047A00200205B
:1011E0007047FFFF00214FF005040346C8B21A46BE
:1011F000591C0B461178CAB24AB100F00701C9B2B6
:1012000002FA01F189B26418401CC0B2EFE720462F
:101210007047FFFF81B0CDF800E00E46002183B299
:10122000002805DA0121404280B280B28FB201E08D
:1012300098B28FB23146FFF71DFE06213446B8B290
:10124000002908D963184A1E92B2A21812781A709F
:10125000491E89B2F4E72022227070B1002081B2C9
:10126000204642181278202A02D1491C89B2F8E798
:101270004A1E92B283182D221A70DDF800E001B0E8
:101280007047FFFF83B0CDF800E0024610460D2204
:101290008DF808200A228DF809201FE0FFF776FF5D
:1012A00023E002782AB10190FFF770FF0198401CFB
:1012B000F7E71AE002782AB10190FFF767FF01987B
:1012C000401CF7E702AA1046FFF760FF0DF1090284
:1012D0001046FFF75BFF08E0062007E00029DDD09D
:1012E0000129DED00229E5D0F6E70020DDF800E094
:1012F00003B0704781B0CDF800E0012149B20E483B
:101300000160002149B20D48016001210C480160D3
:1013100048F69F410B48016040F22C00FFF73CFE6D
:10132000012149B20848016004480160FFF71EFE30
:10133000DDF800E001B07047800342420000004247
:10134000280000402C0000408001004281B0CDF810
:1013500000E009E00846FFF771FD0AE00846FFF7E4
:10136000CDFD06E0012004E00028F3D00128F5D0EF
:10137000F8E7DDF800E001B07047FFFF81B0CDF87D
:1013800000E011E00846FFF79DFD16E00846FFF774
:1013900039FD12E00846FFF719FD0EE00846FFF799
:1013A000C9FD0AE0012008E00028EBD00128EDD0BB
:1013B0002028EFD03028F1D0F4E7DDF800E001B0CC
:1013C0007047FFFF81B0CDF800E003460846FFF705
:1013D000C9FE1846FFF704FFDDF800E001B07047D2
:1013E00001490870704700BFB608002081B0CDF8F1
:1013F00000E00020012806D0FFF7D8FE18B1FFF763
:10140000BDFDFFF76FFE4048007800282DD0002179
:101410003E48017000213E4801703E480078022895
:1014200005D13D493D483E4C2468A0470BE03C496E
:101430003A48FFF7EDFD022136480170364937483A
:10144000374C2468A04700212F48017000213548FF
:1014500001800021314801700021334801700021D2
:10146000324801700021324801703048007800286D
:1014700020D000212548017000212548017028490D
:101480002648FFF7C5FD0021224801702249234864
:10149000234C2468A04700212248018000211F48D6
:1014A00001700021204801700021204801700021B6
:1014B0001F4801701C480078002820D000211348E4
:1014C000017000211248017015491448FFF7A0FD72
:1014D00001211048017010491048114C2468A047A0
:1014E00000211048018000210C48017000210E48A5
:1014F000017000210D48017000210D480170DDF8D8
:1015000000E001B0704700BFA7020020B50800202E
:10151000B4080020D2080020D0080020C804002011
:10152000C8080020C6040020C5040020C404002010
:10153000A602002081B0CDF800E00023244A1370F9
:101540000023244A13700023234A13700023234AE4
:101550001370234A1060234A1160234A1046FFF794
:1015600041FE224A10600023214A13800123214AB0
:1015700013800023204A13800023204A1370002385
:10158000164A13700023144A13700123104A137073
:101590000023124A137000230F4A137000230C4AD1
:1015A00013700023164A13600123164A1370002398
:1015B000144A13700023144A13600123134A137052
:1015C0000023124A1370DDF800E001B0704700BF3D
:1015D000A6020020A7020020C4040020C5040020A9
:1015E000D0020020CC0200209C020020C802002073
:1015F000C4020020C0020020C6040020C80400204D
:10160000B0080020B4080020B8080020B508002069
:1016100081B01CF8019B0BF8019BBBEB0A0FF8D1C2
:1016200001B070471C480078C8B11C4802681B48CC
:101630000068411C194801601948006882420ED9AF
:1016400000211548017000211448016015480188E7
:1016500015484118002008700121144801701448F1
:101660000078C0B11348026812480068411C114854
:101670000160114882420ED900210D4801700021FD
:101680000C4801600748018807484118002008708D
:1016900001210A4801707047B4080020B0080020FA
:1016A000CC080020C6040020C8040020C504002087
:1016B000B5080020B808002005000000C404002080
:1016C00081B01548006840F00101134801601349DA
:1016D0001348016010480168124801400E4801603B
:1016E0000D4801686FF4802001400B4801600C48F0
:1016F00001686FF4FE000140094801600648016876
:101700006FF0A0500140044801604FF0000106480E
:10171000016001B0704700BF001002400000FFF000
:1017200004100240FFFFF6FE2C10024081B04FF083
:1017300000094FF0000CBDEB0A0F04DCBDEB0B0FF2
:1017400001DBD446EA464BF8049BBBEB0A0FFAD107
:10175000BCEB0A0F05DDE246D9F800B00BF1040B33
:10176000F1E701B07047FFFF81B0CDF800E0FFF76F
:101770003DFE1A480068642813D9194800780128EA
:1017800004D118480221FFF77DFD07E016480078D4
:10179000012803D115480221FFF774FD00210F48ED
:1017A000016013480078012813D112480221FFF785
:1017B00069FD1148008860B110480121FFF762FD02
:1017C0000D4800880E49FFF725FD02210C48FFF760
:1017D00059FDDDF800E001B0704700BF2C0000208B
:1017E000A102002030000020A002002045000020BF
:1017F000A20200205A000020A40200206C00002059
:101800008100002081B0CDF800E0FFF773FD0949A9
:101810000948FFF7D7FD094840F2DC51FFF78AFE7F
:101820000120FFF7DDFD002105480160DDF800E043
:1018300001B07047A81E0000141E0000C91100006E
:101840002C00002081B0CDF800E00B4801460020BC
:10185000FFF77CFD4FF4E1312020FFF78FFD0748B3
:101860000221FFF70FFD06480221FFF70BFDDDF80F
:1018700000E001B0704700BF881E0000000000209B
:101880001600002081B0FEE701B0704781B0CDF8AE
:1018900000E0FFF7C7FE06490868401C0860002109
:1018A00049B204480160DDF800E001B0704700BFB4
:1018B0002C0000200002004281B0CDF800E0464A32
:1018C000464B474C47494BF68030814206D9464843
:1018D000006840F002014448016011E045F6C05044
:1018E000814206D94048006840F001013E4801604D
:1018F00006E03D4801686FF0070001403A4801608A
:10190000FFF7DEFE3948036039480460394802EACF
:1019100000013948016002F0010040B11946364823
:10192000006800F00200002800D1F8E700E0194646
:1019300002F4803040B10B462F48006800F40030BC
:10194000002800D1F8E700E00B4602F0805068B1B3
:101950002948006840F08051274801602648006807
:1019600000F00050002800D1F8E7FFE702F08060A7
:1019700078B12148006840F080611F48016011463D
:101980001A461D48006800F00060002800D1F8E702
:1019900001E011461A4601F0807070B116480068E7
:1019A00040F080711448016011461348006800F04F
:1019B000007000B9F9E70A46FFE70C48006800F03C
:1019C0000C01900000F00C00814200D0F5E7DDF83A
:1019D00000E001B0704700BF8100010502841D00D6
:1019E000440601004019010000200240041002409A
:1019F0002C100240FFFF0F0000100240FFF75CFFB9
:101A000000F09AFA00F00AF800F056FAFFF71AFF11
:101A1000FFF7F8FEFFF7A8FEFCE7FEE781B00249FA
:101A20000248016001B0704740190100AC0200207B
:101A30002D2D2D2D2053797374656D20496E697499
:101A4000202D2D2D2D002D2D2D2D2D2D2D2D2D2D00
:101A50002D2D2D2D2D2D2D2D2D2D2D000000000097
:101A6000427574746F6E20322069732070726573D2
:101A70007365642E00427574746F6E203120697333
:101A800020707265737365642E00536C69646572AF
:101A9000206973206163746976652E00536C6964F4
:101AA000657220706F736974696F6E20697320208E
:101AB0000000000000000000000000000000000026
:101AC0000000000000000000000000000000000016
:101AD0000000000000000000000000000000000006
:101AE00000000000000000000000000000000000F6
:101AF00000000000000000000000000000000000E6
:101B000000000000000000000000000000000000D5
:101B100000000000000000000000000000000000C5
:101B200000000000000000000000000000000000B5
:101B300000000000000000000000000000000000A5
:101B40000000000000000000000000000000000095
:101B50000000000000000000000000000000000085
:101B60000000000000000000000000000000000075
:101B70000000000000000000000000000000000065
:101B80000000000000000000000000000000000055
:101B90000000000000000000000000000000000045
:101BA0000000000000000000000000000000000035
:101BB0000000000000000000000000000000000025
:101BC0000000000000000000000000000000000015
:101BD0000000000000000000000000000000000005
:101BE00000000000000000000000000000000000F5
:101BF00000000000000000000000000000000000E5
:101C000000000000000000000000000000000000D4
:101C100000000000000000000000000000000000C4
:101C200000000000000000000000000000000000B4
:101C300000000000000000000000000000000000A4
:101C40000000000000000000000000000000000094
:101C50000000000000000000000000000000000084
:101C60000000000000000000000000000000000074
:101C70000000000000000000000000000000000064
:101C80000000000000000000000000000000000054
:101C90000000000000000000000000000000000044
:101CA00000000000000000002B00002300002400C2
:101CB00000255C002600000000000000003D3F0001
:101CC0003F00003D00003A00000D000000550000FC
:101CD0003500000036000000FFFFFFFF000000009D
:101CE00000000000000000000000000000000000F4
:101CF00000000000000000000000000000000000E4
:101D0000000000001808000018000000000000009B
:101D100000000000000000000000000000000000C3
:101D200000000000000000000000000000000000B3
:101D3000000000000000000008000008090000008A
:101D40000A000000FFFFFFFF00000000000000008D
:101D50000000000000000000000000000000000083
:101D60000000000000000000000000000000000073
:101D7000180800001800000000000000000000002B
:101D80000000000000000000000000000000000053
:101D90000000000000000000000000000000000043
:101DA00000000000040000003800000039000000BE
:101DB000FFFFFFFF00000000000000000000000027
:101DC0000000000000000000000000000000000013
:101DD00000000000000000000000000018080000E3
:101DE00018000000000000000000000000000000DB
:101DF00000000000000000000000000000000000E3
:101E000000000000000000000000000000000000D2
:101E100030001408FFFFFFFFFFFFFFFFFFFFFFFF82
:101E2000FFFFFFFFFFFFFFFFFFFFFFFFFFFFFFFFC2
:101E3000FFFFFFFFFFFFFFFFFFFFFFFFFFFFFFFFB2
:101E4000FFFFFFFFFFFFFFFFFFFFFFFFFFFFFFFFA2
:101E5000FFFFFFFFFFFFFFFFFFFFFFFFFFFFFFFF92
:101E6000FFFFFFFFFFFFFFFFFFFFFFFFFFFFFFFF82
:101E7000FFFFFFFF00000000000000000000000066
:101E80000000000000FFFFFF00C201000000000092
:101E90000000000000000000000000000102030438
:101EA0000102030406070809DD0B0000050B000012
:101EB000BD0A00000204060800B5DFF814B0DFF820
:101EC00014A0DFF814C0FFF7A3FB00BD704700BFEC
:101ED00000000020A0020020301A0000FFFFFFFFDA
:101EE000FFFFFFFFFFFFFFFFFFFFFFFFFFFFFFFF02
:101EF000FFFFFFFFFFFFFFFFFFFFFFFFFFFFFFFFF2
:101F0000FFFFFFFFFFFFFFFFFFFFFFFFFFFFFFFFE1
:101F1000FFFFFFFFFFFFFFFFFFFFFFFFFFFFFFFFD1
:101F2000FFFFFFFFFFFFFFFFFFFFFFFFFFFFFFFFC1
:101F3000FFFFFFFFFFFFFFFF00B5DFF810B0DFF886
:101F400010A0FFF7F3FB00BD704700BF00000020AA
:101F5000D4080020FFFFFFFFFFFFFFFFFFFFFFFF91
:00000001FF
