:04000000F1EF0DF01F
:020006001200E6
:1000080000C01AF001C019F002C018F003C017F0C0
:1000180004C016F005C015F0E1CF1BF0E2CF1CF0CC
:100028009EA00DD09E90C10ECF6E800ECE6EF4ECC9
:100038000CF0010E4426000E4522462247221AC023
:1000480000F019C001F018C002F017C003F016C084
:1000580004F015C005F01BC0E1FF1CC0E2FF110051
:10006800E2C8E9FFE3C8EAFFEE500801E41912E02C
:10007800E2C800F0E3C801F0E24BE32B00C0E9FF5F
:1000880001C0EAFFEECF00F0005203E1006A016A06
:0E00980005D0E6D7E2C800F0E3C801F0120080
:0A00A600000E82BC010E006E120075
:0A00B000000E82B6010E006E120071
:0A00BA00000E84B0010E006E12006B
:0A00C400000E82B8010E006E12005B
:0A00CE00000E80B0010E006E12005B
:0A00D800000E82B0010E006E12004F
:0E00E2000801D8B102D08B9E01D08B8E120087
:0A00F000000E82B6010E006E120031
:0A00FA00000E82BE010E006E12001F
:0A010400000E82B8010E006E12001A
:0A010E00000E82B4010E006E120014
:0A011800000E81B0010E006E12000F
:0A012200000E82B6010E006E1200FE
:0A012C00000E82B8010E006E1200F2
:0A013600000E82BE010E006E1200E2
:0E0140000801D8B102D08D9001D08D80120040
:0E014E000801D8B102D08B9001D08B80120036
:0E015C000801D8B102D08B9801D08B88120018
:0E016A000801D8B102D08B9601D08B8612000E
:0E0178000801D8B102D08B9201D08B82120008
:0E0186000801D8B102D08B9A01D08B8A1200EA
:0E0194000801D8B102D08B9801D08B881200E0
:1001A200D8C8E2F8D9C8E3F8B9C2E4F8000E0801E9
:1001B200E56F59DF0A0E0024E96E000E0120EA6E97
:1001C200EECFDCF8140E0024E96E000E0120EA6E78
:1001D200EECF02F03D0E0024E96E000E0120EA6E21
:1001E200EECFDDF8420E0024D96E000E0120DA6E49
:1001F200430E0024E96E000E0120EA6EEECFBAF241
:10020200000E0201BB6F000EBB6FBAC2BBF2BA6B2B
:10021200DE50BA13000EBB130250010A0AE1010EAE
:100222000801DA25E16E000EDB21E26E010EE66EB8
:1002320017D00801DC51010A07E1DAC8E1FFDBC887
:10024200E2FF010EE66E0CD0DAC8E1FFDBC8E2FF86
:10025200E66A010EDA25E16E000EDB21E26EE66A45
:10026200DD51010A09E1020EDA25E16E000EDB2101
:10027200E26E010EE66E07D0020EDA25E16E000E86
:10028200DB21E26EE66A000E0201BB1902E1000EFA
:10029200BA1914E0000E006EBB51005C02E1BA51C3
:1002A200FF080CE3030E0801DA25E16E000EDB21E4
:1002B200E26EBAC2E6FFBBC2E6FF09D00801030E36
:1002C200DA25E16E000EDB21E26EE66AE66A1200D2
:1002D2001DCF01F00F0122A302D02299228901C071
:0402E20000F0120016
:0A02E600000EA4BA010E006E120013
:0C02F000000E0F0121B3010E006E120081
:1002FC000F0121B302D00000FBD7D8C81CFF12009D
:0A030C00000EACB2010E006E1200EC
:0E0316000801D8B102D0899001D08980120070
:0A032400000E9EBA010E006E1200DA
:0A032E00000E82B8010E006E1200EE
:100338000801DE6BDF6BE06BE16B000EDD1902E19B
:10034800DC51000A2FE0DE51D825E96EDF51D921B2
:10035800EA6EEECF02F002C004F0DE4BDF2BE05174
:10036800DA25D96EE151DB21DA6EDECF01F001C06A
:1003780005F0E04BE12B025001180BE00550045C3E
:1003880003E2FF0E036E02D0010E036E03C000F0FD
:100398000AD0000E041801E105D0010EDC5F000E42
:0803A800DD5BCBD7006A1200F7
:1003B0000801DA6BDB6BDC6B050EDD6F000EDE6FA8
:1003C000000EDF6F000EE06FD8C800F0D9C801F052
:1003D000D84BD92B00C0E9FF01C0EAFFEECFDBF814
:1003E000000EDC6F000EDC6FDB51DC1119E0070E34
:1003F000DA15006E00C002F0DBC800F0DCC801F0C6
:10040000025005E0003600900136FF0FFAD7005089
:10041000DD270150DE23000EDF23E023DA2BD4D7C3
:10042000DDC800F0DEC801F0DFC802F0E0C803F06C
:020430001200B8
:0A043200000E82B6010E006E1200EB
:0E043C000801D8B102D08B9601D08B86120039
:0E044A000801D8B102D08B9801D08B88120027
:0A045800000E84B4010E006E1200C5
:0A046200000E86B4010E006E1200B9
:10046C000801DA6BDB6BDC6BDD6BDA51D825D96EEE
:10047C00DB51D921DA6E000EDE1805E0DA4BDB2BEE
:10048C00DC4BDD2BF2D7DCC800F0DDC801F012002C
:10049C000B6A0A6A096A00500402F4CF09F0F3CF20
:1004AC0008F001500502F4CF0BF0F3CF0AF0005026
:1004BC000502F3500926F4500A22E86A0B22015077
:1004CC000402F3500926F4500A22E86A0B2208C0F1
:1004DC0000F009C001F00AC002F00BC003F01200DA
:0E04EC00ACB202D00000FCD7D8C8ADFF1200A1
:0A04FA00000E84B6010E006E120021
:0A050400000E86B2010E006E120018
:0A050E00000E81B4010E006E120011
:0A051800000E80B4010E006E120008
:0A052200000E82BA010E006E1200F6
:0A052C00000E82B2010E006E1200F4
:0A053600000E80B2010E006E1200EC
:0A054000000E80B8010E006E1200DC
:0A054A00000E81B2010E006E1200D7
:0A055400000E82B6010E006E1200C8
:0A055E00000E84B2010E006E1200C0
:0A056800000E82B8010E006E1200B2
:0A057200000E82BC010E006E1200A4
:0A057C00000E82B6010E006E1200A0
:0E0586000801D8B102D0899401D089841200F6
:0A059400000E82BA010E006E120084
:0A059E00000E82BA010E006E12007A
:0A05A800000E86B0010E006E120076
:0A05B200000E82B8010E006E120068
:0E05BC000801D8B102D08A9001D08A801200C6
:0E05CA000801D8B102D08B9801D08B881200A6
:0E05D8000801D8B102D08B9601D08B8612009C
:1005E600AECF01F0ABA202D0AB98AB8801C000F051
:0205F6001200F1
:0E05F8000801D8B102D08F9001D08F80120080
:0E0606000801D8B102D08B9601D08B8612006D
:0E0614000801D8B102D08D9201D08D82120063
:0E0622000801D8B102D0899801D08988120051
:0E0630000801D8B102D08B9401D08B84120047
:0E063E000801D8B102D08B9A01D08B8A12002D
:0E064C000801D8B102D08A9401D08A8412002D
:0E065A000801D8B102D08B9C01D08B8C12000D
:0E0668000801D8B102D08B9E01D08B8E1200FB
:0E0676000801D8B102D08B9601D08B861200FD
:0E0684000801D8B102D08D9401D08D841200EF
:0E0692000801D8B102D08A9201D08A821200EB
:0E06A0000801D8B102D08F9401D08F841200CF
:0E06AE000801D8B102D08B9601D08B861200C5
:0E06BC000801D8B102D08F9201D08F821200B7
:0E06CA000801D8B102D08B9C01D08B8C12009D
:0E06D8000801D8B102D08B9A01D08B8A120093
:0E06E6000801D8B102D08B9801D08B88120089
:0E06F4000801D8B102D0899201D0898212008B
:0E0702000801D8B102D08B9801D08B8812006C
:0E0710000801D8B102D08D9601D08D8612005E
:10071E000801D16BD26BCEC8D8F8CFC8D9F89FDEFE
:10072E0000C0D0F8CEC8D8F8CFC8D9F83ADE00C08D
:10073E00D3F801C0D4F802C0D5F803C0D6F8010E24
:10074E00D16F000ED26F0201BE510801D25D04E1DD
:10075E000201BD510801D15D48E20E0E006E000E81
:10076E00016ED1C804F0D2C805F091DEBF0E002490
:10077E00E96E020E0120EA6EEECF01F0EECF02F02E
:10078E00000E021802E1D05101182CE10E0E006E7F
:10079E00000E016ED1C804F0D2C805F078DEBF0E8F
:1007AE000026020E0122020E0024E96E000E012028
:1007BE00EA6EEECF01F0EECF02F0EECF03F0EECF09
:1007CE0004F00450D61908E10350D51905E1025082
:1007DE00D41902E10150D31905E1D1C800F0D2C8F5
:1007EE0001F005D0D14BD22BAED7006A016A1200B0
:1007FE00CEC801F0CFC802F00801D46BD56B000E45
:10080E00D31902E1D251000A1CE0D451D025E96E71
:10081E00D551D121EA6E01C0E1FF02C0E2FFEECF59
:10082E00E6FF01C0D9FF02C0DAFF000EDE1802E0BB
:10083E00D44BD52B014A022A010ED25F000ED35B98
:04084E00DED71200DF
:10085200086A096A100E0C6E013408360936045013
:10086200085E0550D8A0053C095ED8B007D00450F8
:1008720008260550D8B0053C0926D8900036013626
:060882000C2EEAD7120063
:10088800FC0E0401866F020E876FD80E886F080E63
:10089800896FD20E8A6F020E8B6F000E8C6F000E5E
:1008A8008D6FE60E826F020E836F000E846F000E4E
:1008B800856FF00EA76F020EA86F000EA96F000ECD
:1008C800AA6F0F01218B900E226F98849892A4AA88
:0A08D80003D01DCF00F0FBD7120083
:1008E200F250026EF29E0500FF6A0150FE6E005049
:0808F200FD6E02BEF28E120041
:1008FA000801D46BD56BD66BD76BCEC8D8F8CFC8E6
:10090A00D9F8AFDD00C0D4F80050100802E2100E8A
:10091A00D46F010ED76FD251D75D42E2030E006E3B
:10092A00000E016ED7C804F0000E056EB2DD00504D
:10093A00D025D86F0150D121D96F93DD00C0D6F8E8
:10094A00D56BD451D55D2AE2030E006E000E016EFE
:10095A00D7C804F0000E056E9CDD0050D025D86F74
:10096A000150D121D96FD551CE25DA6F000ECF2192
:10097A00DB6FD6C8DCF8000EDD6FD9DC00520CE163
:10098A00000ED31903E1D7C800F00BD0010ED3191A
:10099A0003E1D5C800F005D0D52BD3D7D72BBBD7C9
:0409AA00006A1200CD
:1009AE00EC0E0401866F040E876FD80E886F080E4A
:1009BE00896FE60E8A6F050E8B6F000E8C6F000E20
:1009CE008D6F240E826F030E836F000E846F000EE8
:1009DE00856F0C0EA76F030EA86F000EA96F000E89
:1009EE00AA6FAC8A900EAB6E948E949C9EAA03D086
:0809FE00AECF00F0FBD71200A0
:100A0600CEC8D8F8CFC8D9F8930E0801DA6F040E0D
:080A1600DB6FD1EC00F01200CF
:100A1E0090C4E1FF91C4E2FFB2C8E9FFB3C8EAFF98
:100A2E00EECFE6FF8EC400F08FC401F053DF006AF4
:020A3E001200A4
:100A400038D00F0120870D0E1F6F040E1E6F2185F9
:100A50001BDF7ED00F012087060E1F6F820E1E6FD8
:100A6000218512DF75D00F012087030E1F6F400E06
:100A70001E6F218509DF6CD00F012087010E1F6FCB
:100A8000A00E1E6F218500DF63D00F012087010EAD
:100A90001F6F150E1E6F2185F7DE5AD00F012087BC
:100AA0001F6B8A0E1E6F2185EFDE52D0060E006E80
:100AB00059D0000E006E0801B51908E10050B419B4
:100AC00005E1120EB31902E1B251C00ABAE0000EFC
:100AD000006EB51908E10050B41905E1250EB319EF
:100AE00002E1B251800AB6E0000E006EB51908E1CD
:100AF0000050B41905E14B0EB31902E1B251000ADE
:100B0000B2E0000E006EB51908E10050B41905E11D
:100B1000960EB31902E1B251000AAEE0000E006E6B
:100B2000B51908E10050B41905E1E10EB31902E16D
:100B3000B251000AAAE0B551000A08E1B451010A15
:100B400005E1B351C20A02E1B251000AA7E0AED7F3
:100B5000FC0E04018E6F020E8F6FD80E906F080E80
:060B6000916F006A120013
:100B660021D0CF0EAF6EAC941FDF6BD0670EAF6E89
:100B7600AC941ADF66D0CF0EAF6EAC8415DF61D0B1
:100B8600670EAF6EAC8410DF5CD0440EAF6EAC84E3
:100B96000BDF57D0220EAF6EAC8406DF52D0060EA6
:100BA600006E59D0000E006E0801B51908E100501C
:100BB600B41905E1120EB31902E1B251C00AD1E02F
:100BC600000E006EB51908E10050B41905E1250EB6
:100BD600B31902E1B251800AC9E0000E006EB519E0
:100BE60008E10050B41905E14B0EB31902E1B25108
:100BF600000AC1E0000E006EB51908E10050B419F4
:100C060005E1960EB31902E1B251000AB9E0000EF1
:100C1600006EB51908E10050B41905E1E10EB319EB
:100C260002E1B251000AB1E0B551000A08E1B4513F
:100C3600010A05E1B351C20A02E1B251000AAAE073
:100C4600AED7EC0E04018E6F040E8F6FD80E906F28
:080C5600080E916F006A120004
:0C0C5E00ABC400F0ACC401F03DDE12009D
:0C0C6A0098C400F099C401F037DE1200BD
:100C7600B2C8B5F8B3C8B6F8B4C8B7F821D0CF0E25
:100C8600AF6EAC9491DED9D0670EAF6EAC948CDEAD
:100C9600D4D0CF0EAF6EAC8487DECFD0670EAF6EEA
:100CA600AC8482DECAD0440EAF6EAC847DDEC5D085
:100CB600220EAF6EAC8478DEC0D0050E006EBFD0BB
:100CC600B5C8F6FFB6C8F7FFB7C8F8FF0900F5CFF5
:100CD60001F00900F5CF02F00900F5CF03F0090095
:100CE600F5CF04F0000E006E041808E1005003185A
:100CF60005E1120E021802E10150C00AC0E0B5C8B3
:100D0600F6FFB6C8F7FFB7C8F8FF0900F5CF01F040
:100D16000900F5CF02F00900F5CF03F00900F5CF81
:100D260004F0000E006E041808E10050031805E1F7
:100D3600250E021802E10150800AA6E0B5C8F6FFAA
:100D4600B6C8F7FFB7C8F8FF0900F5CF01F00900EC
:100D5600F5CF02F00900F5CF03F00900F5CF04F056
:100D6600000E006E041808E10050031805E14B0E52
:100D7600021802E10150000A8CE0B5C8F6FFB6C8B9
:100D8600F7FFB7C8F8FF0900F5CF01F00900F5CF66
:100D960002F00900F5CF03F00900F5CF04F0000ECC
:100DA600006E041808E10050031805E1960E0218BB
:100DB60002E10150000AD8B471D7B5C8F6FFB6C82B
:100DC600F7FFB7C8F8FF0900F5CF01F00900F5CF26
:100DD60002F00900F5CF03F00900F5CF04F0000E8C
:100DE600006E041808E10050031805E1E10E021830
:100DF60002E10150000AD8B456D7B5C8F6FFB6C806
:100E0600F7FFB7C8F8FF0900F5CF01F00900F5CFE5
:100E160002F00900F5CF03F00900F5CF04F0045005
:100E2600000A08E10350010A05E10250C20A02E184
:100E36000150000AD8B43CD740D7000E006E12000D
:100E46000801B66B050EB65D0AE2B651B425E16E31
:100E5600000EB521E26E200EE66EB62BF3D7B65124
:100E6600B425E16E000EB521E26EE66AB607B6510C
:100E7600B425B76F000EB521B86F0A0E046E000ECA
:100E8600056EB2C800F0B3C801F0E0DC08C000F09F
:100E960009C001F0300E0026B7C8E1FFB8C8E2FF6E
:100EA60000C0E6FF0A0E046E000E056EB2C800F022
:100EB600B3C801F0CBDC00C0B2F801C0B3F8000E35
:100EC600011802E1000E001801E102D0B607CFD7E3
:020ED600120008
:100ED8000801B66BB76BB86BB96BBA6BBB6BBC6B05
:100EE800BD6BBE6BBF6BC06BC16BC26BC36BC46B9E
:100EF800C56BC66BC76BC86BC96BCA6BCB6BB2C80B
:100F0800CEF8B3C8CFF82F0ED06F000ED16F070EF2
:100F1800D26FD36BEEDC00C0B7F8B2C8CEF8B3C856
:100F2800CFF82F0ED06F000ED16F070ED26F010EC3
:100F3800D36FDFDC00C0B8F8B2C8CEF8B3C8CFF8BA
:100F48001D0ED06F000ED16F060ED26FD36BD1DCA1
:100F580000C0B9F8B2C8CEF8B3C8CFF81D0ED06F2C
:100F6800000ED16F060ED26F010ED36FC2DC00C027
:100F7800BAF8000E001802E1100EBA6FBB0ECE6F61
:100F8800080ECF6FB851B225D06F000EB321D16FC4
:100F9800B851BA5DD26FD36B000ED35B2CDCBB0E9D
:100FA800CE6F080ECF6F8FEC03F000C0B6F8000EBE
:100FB800016E0E0E046E000E056E4EEC02F0BF0EB2
:100FC8000026020E01220A0E0024E96E000E0120FE
:100FD800EA6EB4C8E1FFB5C8E2FFEECFE6FFEECF98
:100FE800E6FFEECFE6FFEECFE6FF040EB425CC6FAA
:100FF800000EB521CD6F0E0E006E000E016EB6C844
:1010080004F0000E056E4EEC02F0BF0E0026020E34
:101018000122060E0024E96E000E0120EA6ECCC8FB
:10102800E1FFCDC8E2FFEECFE6FFEECFE6FFEECF61
:10103800E6FFEECFE6FF080EB425E16E000EB521FF
:10104800E26EB7C8E6FF080EB425006E000EB521A3
:10105800016E010E0024E16E000E0120E26EB9C897
:04106800E6FF12008D
:10106C000401816B806B010E926F0801A46BA56B60
:10107C00A66BA76B010EA36FB90E0401B725E16E29
:10108C00040EB821E26EB2C8E6FF010EB725006E61
:10109C00000EB821016E00C0B7F401C0B8F4000E08
:1010AC00B85D02E1C00EB75D02E3010E7F6F030E67
:1010BC00B81902E1B751E70A0AE1010EB75D006EFB
:1010CC00000EB859016E00C0B7F401C0B8F412009C
:1010DC00B2C8B5F8B3C8B6F8B4C8B7F821D0CF0EBB
:1010EC00AF6EAC945EDCD9D0670EAF6EAC9459DCAD
:1010FC00D4D0CF0EAF6EAC8454DCCFD0670EAF6EB5
:10110C00AC844FDCCAD0440EAF6EAC844ADCC5D084
:10111C00220EAF6EAC8445DCC0D0050E006EBFD085
:10112C00B5C8F6FFB6C8F7FFB7C8F8FF0900F5CF8A
:10113C0001F00900F5CF02F00900F5CF03F009002A
:10114C00F5CF04F0000E006E041808E100500318EF
:10115C0005E1120E021802E10150C00AC0E0B5C848
:10116C00F6FFB6C8F7FFB7C8F8FF0900F5CF01F0D6
:10117C000900F5CF02F00900F5CF03F00900F5CF17
:10118C0004F0000E006E041808E10050031805E18D
:10119C00250E021802E10150800AA6E0B5C8F6FF40
:1011AC00B6C8F7FFB7C8F8FF0900F5CF01F0090082
:1011BC00F5CF02F00900F5CF03F00900F5CF04F0EC
:1011CC00000E006E041808E10050031805E14B0EE8
:1011DC00021802E10150000A8CE0B5C8F6FFB6C84F
:1011EC00F7FFB7C8F8FF0900F5CF01F00900F5CFFC
:1011FC0002F00900F5CF03F00900F5CF04F0000E62
:10120C00006E041808E10050031805E1960E021850
:10121C0002E10150000AD8B471D7B5C8F6FFB6C8C0
:10122C00F7FFB7C8F8FF0900F5CF01F00900F5CFBB
:10123C0002F00900F5CF03F00900F5CF04F0000E21
:10124C00006E041808E10050031805E1E10E0218C5
:10125C0002E10150000AD8B456D7B5C8F6FFB6C89B
:10126C00F7FFB7C8F8FF0900F5CF01F00900F5CF7B
:10127C0002F00900F5CF03F00900F5CF04F004509B
:10128C00000A08E10350010A05E10250C20A02E11A
:10129C000150000AD8B43CD740D7000E006E1200A3
:1012AC0027D0CF0EAF6EAC94D7EC04F070D0670E95
:1012BC00AF6EAC94D7EC04F06AD0CF0EAF6EAC84AA
:1012CC00D7EC04F064D0670EAF6EAC84D7EC04F0AE
:1012DC005ED0440EAF6EAC84D7EC04F058D0220E26
:1012EC00AF6EAC84D7EC04F052D0060E006E59D021
:1012FC00000E006E0801B51908E10050B41905E1A3
:10130C00120EB31902E1B251C00ACBE0000E006E0E
:10131C00B51908E10050B41905E1250EB31902E125
:10132C00B251800AC4E0000E006EB51908E10050FD
:10133C00B41905E14B0EB31902E1B251000ABDE03C
:10134C00000E006EB51908E10050B41905E1960EB7
:10135C00B31902E1B251000AB6E0000E006EB519E5
:10136C0008E10050B41905E1E10EB31902E1B251E4
:10137C00000AAFE0B551000A08E1B451010A05E1D9
:10138C00B351C20A02E1B251000AA9E0AED7EC0E89
:10139C0004018E6F040E8F6FD80E906F080E916F34
:0413AC00006A1200C1
:1013B00027D0CF0EAF6EAC94D7EC04F070D0670E90
:1013C000AF6EAC94D7EC04F06AD0CF0EAF6EAC84A5
:1013D000D7EC04F064D0670EAF6EAC84D7EC04F0A9
:1013E0005ED0440EAF6EAC84D7EC04F058D0220E21
:1013F000AF6EAC84D7EC04F052D0060E006E59D01C
:10140000000E006E0801B51908E10050B41905E19D
:10141000120EB31902E1B251C00ACBE0000E006E09
:10142000B51908E10050B41905E1250EB31902E120
:10143000B251800AC4E0000E006EB51908E10050F8
:10144000B41905E14B0EB31902E1B251000ABDE037
:10145000000E006EB51908E10050B41905E1960EB2
:10146000B31902E1B251000AB6E0000E006EB519E0
:1014700008E10050B41905E1E10EB31902E1B251DF
:10148000000AAFE0B551000A08E1B451010A05E1D4
:10149000B351C20A02E1B251000AA9E0AED7EC0E84
:1014A00004018E6F040E8F6FD80E906F080E916F2F
:0414B000006A1200BC
:1014B400B2C8F6FFB3C8F7FFB4C8F8FF0900F5CF08
:1014C400AFF40900F5CFB0F40900F5CFB1F4090089
:1014D400F5CFB2F4040E0801B225F66E000EB32166
:1014E400F76E000EB421F86E0900F5CFABF40900D5
:1014F400F5CFACF40900F5CFADF40900F5CFAEF4A7
:10150400080EB225F66E000EB321F76E000EB4215C
:10151400F86E0900F5CF98F40900F5CF99F40900A5
:0C152400F5CF9AF40900F5CF9BF41200FB
:06153000050E006E120022
:101536001CD0A9C8B2F8AAC8B3F8ABC8B4F83BEC3B
:1015460006F01ED0A9C8B2F8AAC8B3F8ABC8B4F85A
:10155600C2DD16D0A9C8B2F8AAC8B3F8ABC8B4F8A9
:10156600E4DF0ED0010E006E0BD00801A851000A70
:10157600E0E0A851010AE6E0A851020AEBE0F2D742
:02158600120051
:101588002DD0A9C8B2F8AAC8B3F8ABC8B4F8ACC88B
:10159800B5F80ADF31D0A9C8B2F8AAC8B3F8ABC801
:1015A800B4F8ACC8B5F87EDE27D0A9C8B2F8AAC886
:1015B800B3F8ABC8B4F8ACC8B5F820EC05F01CD04B
:1015C800A9C8B2F8AAC8B3F8ABC8B4F8ACC8B5F89B
:1015D800B3EC05F011D0010E006E0ED00801A85131
:1015E800000ACFE0A851010AD6E0A851020ADDE0BE
:0A15F800A851100AE5E0EFD7120039
:06160200A8C8A2F81200C6
:101608000401926B7F6B806B816BA8C8C9F2A9C873
:10161800CAF2AAC8CBF2ABC8CCF2ACC8C5F2ADC806
:10162800C6F2AEC8C7F2AFC8C8F2BC0E0801D86F80
:10163800020ED96FD8EC01F000C0C1F201C0C2F2AD
:1016480002C0C3F203C0C4F20201BF6BC06B010E3B
:10165800BD6F000EBE6F0401B76BB86BB96B816BC1
:10166800806B010E926F816B806B926BB36BB46B66
:10167800B56BB66B010E0801A16FA16BA46BA56BCE
:0C168800A66BA76B010EA36FA36B1200F2
:101694000801AE6BAF6BA8C8B0F8A9C8B1F8800E4A
:1016A400A919006E800E005C02E1000EA85D0BE239
:1016B400010EAE6F000EAF6FA8510008B06FA9C83D
:1016C400B1F8000EB157B0C8B2F8B1C8B3F8AAC89F
:1016D400B4F8ABC8B5F823EC07F0060EAC6F000EF7
:1016E400AD6F000E006EAD51005C02E1AC5100081C
:1016F40019E2AC51AA25E16EAD51AB21E26E010EA7
:10170400AC5D006E000EAD59016E0050AA25E96E65
:101714000150AB21EA6EEECFE6FF010EAC5F000E86
:10172400AD5BDFD7AAC8E1FFABC8E2FF200EE66ECF
:10173400AE51AF111AE0AC6BAD6BAC51AA25E96E9A
:10174400AD51AB21EA6EEE50200A03E1AC4BAD2B58
:10175400F4D7010EAC5F000EAD5BAC51AA25E16E6F
:0C176400AD51AB21E26E2D0EE66E1200BE
:10177000010E016E000E01180AE035EC06F0000EB5
:10178000001805E02FEC06F000C0B2F86FDC040191
:101790007F5342E00801A36BA16B020E0401A6195E
:1017A00013E19EC4E1FF9FC4E2FFB90EE66E040E92
:1017B000E66EA40EE66E040EE66E9CC400F09DC4B8
:1017C00001F071EC04F020D0B90E0801B26F040EE4
:1017D000B36F9C0EB46F040EB56F6CEC07F0020E85
:1017E0000401A66F9EC4E1FF9FC4E2FFB90EE66E3E
:1017F000040EE66EA40EE66E040EE66E9CC400F0C7
:101800009DC401F071EC04F004017F6BB76BB86B01
:10181000B96B816B806B926B805328E00801A36BDE
:10182000A16BB90EB26F040EB36F9C0EB46F040EB1
:10183000B56F6CEC07F00401A66B9EC4E1FF9FC47A
:10184000E2FFB90EE66E040EE66EA40EE66E040E1E
:10185000E66E9CC400F09DC401F071EC04F004013C
:10186000B76BB86BB96B816B806B926B815329E05E
:101870000801A36BA16BB90EB26F040EB36F9C0E7F
:10188000B46F040EB56F6CEC07F0010E0401A66F87
:101890009EC4E1FF9FC4E2FFB90EE66E040EE66E41
:1018A000A40EE66E040EE66E9CC400F09DC401F02A
:1018B00071EC04F00401B76BB86BB96B816B806B92
:0418C000926B120015
:1018C400A8C8ABF8A9C8ACF80D0E0801AD6F0A0E94
:1018D400AE6F3AD0ABC8B2F8ACC8B3F80FEC05F0B1
:1018E4003ED0ABC8E9FFACC8EAFFEE520AE0ABC891
:1018F400B2F8ACC8B3F80FEC05F00801AB4BAC2B55
:10190400F0D72DD0ABC8E9FFACC8EAFFEE520AE02D
:10191400ABC8B2F8ACC8B3F80FEC05F00801AB4B98
:10192400AC2BF0D70801AD0EB26F080EB36F0FECFD
:1019340005F0AE0E0801B26F080EB36F0FEC05F0A0
:101944000ED0060E006E0CD00801AA51000AC2E0A7
:10195400AA51010AC6E0AA51020AD4E0F2D7006AE9
:0219640012006F
:10196600010ECD6E9E90C10ECF6E800ECE6E9D8006
:06197600C00EF26E12002B
:10197C00ABC8B2F8ACC8B3F8ADC8B4F895DDA8C81C
:10198C00B2F8A9C8B3F8AAC8B4F803EC00F0120076
:10199C000801A86B120EA96F1F0EAA6F000EAB6F79
:1019AC00C4DD020E0801A86F000EA96FC20EAA6F4B
:1019BC00010EAB6F000EAC6FE1DD480E0801A86F95
:1019CC00000EA96F020EAA6F77DF520E0801A86FE6
:0C19DC00020EA96F020EAA6F6FDF12004E
:1019E8000801A15339E0B3C404F0B4C405F0B5C488
:1019F80006F0B6C407F0010E0401B325006E000E10
:101A0800B421016E000EB521026E000EB621036EE0
:101A180000C0B3F401C0B4F402C0B5F403C0B6F416
:101A28000750A35D08E10650A25D05E10550A15DE0
:101A380002E10450A05D10E20801A16B0401B36B40
:101A4800B46BB56BB66BB90EB725E16E040EB82151
:101A5800E26EE66A010E816F0801A35338E0A4C85C
:101A680004F0A5C805F0A6C806F0A7C807F0010E3F
:101A7800A425006E000EA521016E000EA621026E9F
:101A8800000EA721036E00C0A4F801C0A5F802C08B
:101A9800A6F803C0A7F80750000808E10650000898
:101AA80005E10550000802E10450050810E20801AC
:101AB800A36BA46BA56BA66BA76BB90E0401B72526
:101AC800E16E040EB821E26EE66A010E806F120024
:101AD8000900F5CFE6FF0006FBE10106F9E1120077
:101AE8003EDF900E0801A86F1E0EA96F000EAA6FA8
:101AF800060EAB6F1F0EAC6F000EAD6F3BDF060E10
:101B0800A86F0A0EA96FCE0EAA6F080EAB6FDC0E77
:101B1800AC6F050EAD6F000EAE6FAF6F71DD010ECD
:0E1B2800A86F6BDD446A456A466A476A120080
:101B36001CDE4750000808E14650000805E1455004
:101B4600000802E1445064081CE29451010A09E1CC
:101B5600680E0801A86F020EA96F020EAA6FAFDE0B
:101B66000CD004019351010A08E17D0E0801A86F0B
:101B7600020EA96F020EAA6FA2DE446A456A466A81
:101B8600476A04019551010A28E1A70E0801A86FCA
:101B9600020EA96F020EAA6F92DE000E04019719BB
:101BA60002E1000E961919E0920E0801A86F020EC6
:101BB600A96F010EAA6F83DE96C4A8F897C4A9F888
:101BC6005E0E0801AA6F000EAB6F61DD5E0EA86F98
:0C1BD600000EA96F020EAA6F72DE120052
:0E1BE2008BEC0FF0DADE7FDFA5DFFED7FFD73A
:101F160010EE1DF0A00E006E030E016EF00EF66EB2
:0E1F26001B0EF76E000EF86E6CEC0DF0120044
:101BF0000000003D3F003F00003D00003A00000DA6
:021C00000000E2
:101C02000000002B0000230000240000255C0026B9
:051C12000000000000CD
:041C170000000000C9
:101C1B002D2D2D2D2053797374656D20496E6974AC
:061C2B00202D2D2D2D00DF
:101C310000000000000000000000000000000000A3
:101C41000000000000000000000000000000000093
:101C51000000000000000000000000000000000083
:101C61000000000000000000000000000000000073
:101C71000000000000000000000000000000000063
:101C81000000000000000000000000000000000053
:101C91000000000000000000000000000000000043
:101CA1000000000000000000000000000000000033
:101CB1000000000000000000000000000000000023
:101CC1000000000000000000000000000000000013
:101CD1000000000000000000000000000000000003
:101CE10000000000000000000000000000000000F3
:101CF10000000000000000000000000000000000E3
:101D010000000000000000000000000000000000D2
:101D110000000000000000000000000000000000C2
:101D210000000000000000000000000000000000B2
:101D310000000000000000000000000000000000A2
:101D41000000000000000000000000000000000092
:101D51000000000000000000000000000000000082
:101D61000000000000000000000000000000000072
:101D71000000000000000000000000000000000062
:101D81000000000000000000000000000000000052
:101D91000000000000000000000000000000000042
:101DA1000000000000000000000000000000000032
:101DB1000000000000000000000000000000000022
:101DC1000000000000000000000000000000000012
:101DD1000000000000000000000000000000000002
:101DE10000000000000000000000000000000000F2
:101DF10000000000000000000000000000000000E2
:101E010000000000000000000000000000000000D1
:101E110000000000000000000000000000000000C1
:041E210000000000BD
:101E25002D2D2D2D2D2D2D2D2D2D2D2D2D2D2D2DDD
:061E35002D2D2D2D2D00C6
:101E3B00427574746F6E20322069732070726573F3
:051E4B007365642E0028
:101E5000427574746F6E20312069732070726573DF
:051E60007365642E0013
:101E6500536C6964657220706F736974696F6E2055
:051E750069732020004C
:101E7A00536C69646572206973206163746976655D
:021E8A002E0028
:011E8C005500
:021E8D00000053
:011E8F000052
:101E90001603D8084E01D8084001D8086A01D808AE
:101EA0009401D8088601D8087801D808BC05D8085C
:101EB0006806D8085A06D8080606D8080207D808BF
:101EC000CE000000D8000000BA000000F0000000C2
:101ED00004010000220500002C050000180100008C
:101EE000FA000000A6000000B0000000C4000000DE
:011EF00000F1
:011EF10000F0
:011EF20000EF
:011EF30000EE
:011EF40000ED
:101EF50000000000000000000000000000000000DD
:011F050000DB
:0C1F0600EC04D808E605000024030000ED
:041F120000C2010008
:020000040030CA
:0E00000015137F7CF98B91FFFFC0FFE0FF40DE
:00000001FF
